:1000000000000220695C0200915C0200935C020027
:10001000955C0200975C0200995C02000000000001
:100020000000000000000000000000004515020074
:100030009D5C02000000000065150200A15C02004A
:1000400099870200A35C0200A9300200312A030054
:10005000A35C0200A35C0200D91E0200A35C0200A4
:10006000A35C0200A35C0200A35C02005D2202000C
:10007000A35C0200A1890200A35C0200A35C020051
:10008000312E0200A5110200A35C0200A35C020055
:10009000A35C0200A35C0200A35C0200A35C02005C
:1000A000A35C0200A35C0200A35C0200A35C02004C
:1000B000A35C0200A35C020000000000000000003E
:1000C000A35C0200A35C0200A35C0200412A0300BF
:1000D0006D220200A35C0200092B00005D3F0200BC
:1000E000A35C02000000000000000000000000000F
:1000F00000000000A35C020000000000512A030081
:1001000000000000000000000000000000000000EF
:1001100000000000000000000000000000000000DF
:1001200000000000000000000000000000000000CF
:1001300000000000000000000000000000000000BF
:1001400000000000000000000000000000000000AF
:10015000000000000000000000000000000000009F
:10016000000000000000000000000000000000008F
:10017000000000000000000000000000000000007F
:10018000000000000000000000000000000000006F
:10019000000000000000000000000000000000005F
:1001A000000000000000000000000000000000004F
:1001B000000000000000000000000000000000003F
:1001C000000000000000000000000000000000002F
:1001D000000000000000000000000000000000001F
:1001E000000000000000000000000000000000000F
:1001F00000000000000000000000000000000000FF
:10020000D64903000000000031460000AC4A03005C
:10021000DB4903000000000031460000AC4A030047
:10022000DD49030000000000F13900005A500300CE
:10023000E249030000000000253A0000825003005C
:1002400057560300000000008D3A00003A500300AA
:10025000E645030001000000B95900005C560300A8
:10026000E045030001000000016C00008E6D0300FA
:10027000DA45030001000000D16B0000686A03004A
:100280005656030002000000DD59000065570300C8
:100290006851030001000000294700009E5103003F
:1002A000BD5203000100000051480000CC52030081
:1002B000C4520300010000007D4A00003C530300CB
:1002C000B149030001000000B53E0000134F0300D8
:1002D000B949030001000000293A00003C4A03002C
:1002E000BE4903000100000045430000344B0300F9
:1002F000C349030001000000D13D00001E4A030075
:10030000CA49030001000000753D00004C4F030086
:10031000CF49030001000000A53C0000CE4F0300C0
:100320006D51030001000000A1470000745103005B
:10033000E645030002000000B156000079560000B7
:100340008936000055380000C8550300DA4503001F
:1003500002000000F96000002966000089360000F4
:100360005538000000000000E045030002000000D6
:100370000B61000029660000893600005538000036
:100380000000000001330000A93700000000000059
:10039000000000000000000000000000000000005D
:1003A000000000000000000000000000000000004D
:1003B000000000000000000000000000000000003D
:1003C000000000000000000000000000000000002D
:1020000010B5054C237833B9044B13B10448AFF332
:1020100000800123237010BD500800200000000044
:10202000B09D030008B5034B1BB103490348AFF350
:10203000008008BD0000000054080020B09D03008F
:10204000A3F5803A704700BF174B002B08BF134B16
:102050009D46FFF7F5FF00218B460F461348144AB3
:10206000121A17F0A5FB0E4B002B00D098470D4B12
:10207000002B00D098470020002104000D000D48DF
:10208000002802D00C48AFF3008017F03FFB20007F
:10209000290000F013F817F013FB00BF0000080040
:1020A0000000000000000000000002205008002096
:1020B000B4A40120000000000000000008B500F0FA
:1020C00099F901F091FB26F079FD00F09DF902F0FD
:1020D0000BFB01F0E3F901F075F901F00BF9FEE7F4
:1020E000704738B58AB204460D460146002000F01C
:1020F000DDF82A0C21460120BDE8384000F0D6B8B2
:10210000F7B50126324601A91F208DF8026000F0C4
:102110006DFD0446002840F08380019DB5F5003F29
:102120004FEA15477FD20146324600F089F8324621
:102130003146304600F084F8B74269D1C5F307252F
:10214000B54265D1394B019301990520FFF7C9FFCD
:10215000012201A91C2000F049FD044600285FD19E
:1021600001990920FFF7BDFF012201A9112000F00C
:102170003DFD0446002853D1019A052100F0C2F824
:10218000044600284CD1012201A9132000F02EFDA5
:102190000446002844D1019A092100F0B3F804460E
:1021A00000283DD1012201A91E2000F01FFD044698
:1021B000002835D1019B03F07F038DF801302BB14E
:1021C00001221B480DEB02010EF004F8012201A9C7
:1021D000182000F00BFD044610BB019B8BB11B0CBB
:1021E00001220DF1030113488DF803300DF0F2FFC9
:1021F000019B11488DF8033001220DF103010DF010
:10220000E9FF01220DF102010C480DF0E3FF07E0A8
:10221000012201A91A2000F0E9FC0446002893D00D
:10222000204603B0F0BD6FF00B04F9E7EE3FEE3F40
:10223000503D03005A3D03006C3D03007E3D03000A
:10224000F0B58BB005AC8DF80620164A8DF8071056
:10225000034602F11007264610685168254603C55B
:102260000832BA422C46F7D10F4C127861682068C8
:102270002A7002AA03C2218911802BB13033DBB24C
:102280008DF817308DF80B300DF107010122304623
:102290000DF0A0FF01220DF1060102A80DF09AFF3A
:1022A0000BB0F0BD983D0300A93D0300F0B589B027
:1022B000134B019203AA05460C4603F1100C174676
:1022C00018685968164603C6083363453246F7D185
:1022D00019889B783180B370019BA3F57A53303510
:1022E0003034B3F57A7F8DF80F508DF8134005D850
:1022F00004220DEB020138460DF06CFF09B0F0BD71
:10230000B33D0300F0B5254B8DB003AC06468C46BB
:1023100003F1200E254618685968274603C708337D
:1023200073453C46F7D119889B78BB70A2F1013305
:10233000B3F1FD3F39802CD8D3B2C2F307219942C3
:1023400029D1C2F307438B4225D1B3EB126F4FEA79
:10235000126120D10CF1300330360DF107026046D6
:102360008DF80F608DF8133007F05EFE044668B9F3
:102370009DF80720130443EA0223134343EA026350
:1023800002A90422284602930DF024FF20460DB036
:10239000F0BD0024FAE76FF00A04F7E7C63D03003A
:1023A0004FF0A04307B50C22C3F83C270F4B40F277
:1023B0000112C3F840251FF0CDFA28B1852803D0BB
:1023C0000121084600F036FA20F0DAFD4FF0804295
:1023D000D2F81834DB03FBD5054B1B6801934EF68E
:1023E000602003B05DF804EB184700BF00E0014037
:1023F000F83D030008B500F03DFB03201FF019F97C
:10240000BDE80840FFF7CCBF08B5074B07481B687D
:10241000984700F08DFF10B1044800F07BF9BDE84B
:102420000840002000F08ABB1C3F03000D34000070
:1024300048F21953984222DC48F20253984205DCD4
:10244000002814BF6FF0040000207047A0F505407D
:102450000338162810D8DFE800F00C220F0F0F0FFA
:102460000F0F0F0F0F0F0F2828282828250F2828B7
:1024700025006FF0110070476FF00400704748F2BC
:102480005053984211D0A0F50540D4BF4138603870
:10249000032834BF6FF00A006FF0040070476FF03C
:1024A000050070476FF0100070476FF00A0070472A
:1024B00008B5064B1A783AB901221A7023F096FD36
:1024C000BDE80840FFF7B4BF002008BDA009002008
:1024D00008B5054B187828B123F0A4FDBDE80840E5
:1024E000FFF7A6BF08BD00BFA009002007B5042163
:1024F0000DEB010023F00AFF019803B05DF804FB27
:1025000010B588B007ACCDE903340023CDE9011242
:1025100007920093054903460222054823F01EFD59
:1025200008B0BDE81040FFF783BF00BFA0930300D1
:102530006C08002010B588B007ACCDE90334002347
:10254000CDE901120792009305490346022205488E
:1025500023F004FD08B0BDE81040FFF769BF00BFDD
:10256000C49303006C08002010B5044623F09AFDC4
:102570002046BDE8104000F07BBD000037B50546A1
:102580004C20019100F036FD044660B1019A0749E4
:1025900023F070FD20B103B0BDE83040FFF748BF25
:1025A0002C6003B030BD6FF01000FAE70C9403000C
:1025B00030B589B0CDE900239DF840500C9C0695BC
:1025C0000F9DCDE904450D9D0A46CDE902450D2339
:1025D000012123F07DFD09B0BDE83040FFF728BFA1
:1025E00030B587B00D9D0A9C04950C9DCDE9024540
:1025F0000B9DCDE90045FFF7DBFF07B030BD30B5DF
:1026000089B0CDE900239DF840500C9C06950F9DA4
:10261000CDE904450D9D0A46CDE902450D23002173
:1026200023F056FD09B0BDE83040FFF701BF30B5DB
:1026300087B00D9D0A9C04950C9DCDE902450B9D2C
:10264000CDE90045FFF7DBFF07B030BD70B50546AB
:102650004FF4A4700C46164600F0CCFC78B121462D
:1026600000F59A7304F1100251F8044B43F8044B3F
:102670009142F9D180F844612860002070BD6FF06C
:102680001000FBE700F0F4BC30B589B007ADCDE930
:102690000335CDE9011200230093079200F59A73E8
:1026A00090F84421034923F059FCFFF7C1FE09B01B
:1026B00030BD00BFE8930300024A13680133136082
:1026C000704700BFA4090020014B187820F020BCFF
:1026D000A10900201FB50C4A044607CA01AB83E8D4
:1026E00007000A490294184620F0B8FB08B11FF011
:1026F000EBF8074820F0ECFB08B11FF0E5F820F0FC
:10270000D9FB04B010BD00BFEC3D0300B9260000AA
:10271000A109002070B5154D06460FCD8AB004AC56
:102720000FC495E8030084E803002EB9104B114A4A
:102730001148502116F0A2FF104B11491E6011489C
:1027400001234FF4007202F081FE0F4B0F4A0093F9
:102750004FF40073CDE9022301930D4A0623694625
:1027600004A81EF0F7FF0AB070BD00BF783E03005A
:10277000003E0300903E0300093E0300BC0F002012
:10278000BC0D0020AC0D0020A9090020A90B0020E1
:102790000128000008B51FF035F8BDE808401FF01B
:1027A0007FB870B506460D460024A54201DC002026
:1027B00070BD305D1FF04CF808B90134F5E71B20FF
:1027C000F6E7000007B50DF107001FF02BF818B968
:1027D000084B1A781AB1187003B05DF804FB9DF825
:1027E0000710054802F08EFE044B03481B6898470B
:1027F000F2E700BFA8090020AC0D0020BC0F0020AC
:1028000003785A1E012A03D83721002000F012B89D
:102810000BB9FFF7D7BF704738B5054D044645F0F3
:1028200001054FF47A40A847013CFAD138BD00BFFA
:10283000A03E0300144B2DE9F047DFF850A01970BB
:1028400005460C464FF0A0480DB9BDE8F087264676
:10285000002EF9D003279AF800004FF0100920F05D
:1028600057FB6420C8F80C95FFF7D6FFC8F8089509
:102870006420FFF7D1FF013FEDD14FF47A70FFF7ED
:10288000CBFF013EE4E700BFC00F0020A1090020FC
:10289000024B187880F00100704700BF4C100020F8
:1028A0007047000070B50446032938D8DFE801F00E
:1028B0000234142C204D204623F093F981B21F4896
:1028C00002F006FE40211D4802F0DEFD014638BB45
:1028D0001B4B1C4A67210EE01B4B002201201A7083
:1028E0001EF070FE4021154802F0CEFD014628B9C9
:1028F000134B144A5221154816F0C0FEBDE8704033
:102900000D48402223F072B90F4B0022BDE8704001
:1029100001201A701EF06ABE0B4B00221A7070BDA7
:102920004022284623F062F90028C4D0084B03480F
:102930001B68BDE8704018475C3F0300501400203E
:10294000A63E0300423F03004C100020AF3E0300B0
:102950006014002008B5064B0A4601211970014693
:10296000044823F01DF9B0FA80F0400908BD00BF0B
:102970004C1000205C3F030008B528B9134B144AE3
:102980001448C52116F07AFE134B144918604FF411
:1029900080621348402302F059FD22F0A9FB114B3D
:1029A000114800221A7021F06DFD08B11EF08CFF55
:1029B0000E4821F009FE08B11EF086FF21F0CEFD81
:1029C00018B1BDE808401EF07FBF08BD003E0300FF
:1029D000343F0300AF3E0300601400204D10002080
:1029E000501400204C100020803F03005C3F030087
:1029F000023808B50D283CD8DFE800F0070C3B3B57
:102A00003B3B17272E3B3B3B1132BDE808400020E3
:102A10001EF0ECBDBDE8084000201EF0D3BD21F043
:102A2000B7FDBDE808401EF0F5BD20F0D5FF00BBA6
:102A30001FF018F828B11FF001F81FF013F8002854
:102A4000FBD1BDE8084021F0A1BD21F0B3FDBDE8F8
:102A5000084000201EF0C8BFBDE8084021F09ABD24
:102A600022F040FB052804D1BDE80840032002F015
:102A7000F7BD08BD4FF08053D3F830210D2A36D171
:102A8000D3F83431022B34D81B4AD35C002B0CBF53
:102A9000FF225A224FF01023D3F80832DBB29342C0
:102AA00029D016490123C1F80435D1F80034002B90
:102AB000FBD04FF01020D0F8083223F0FF0313436F
:102AC000C0F808320D4A0023C1F80435D2F80034AA
:102AD000002BFBD0BFF34F8F09490A4BCA6802F4A1
:102AE000E0621343CB60BFF34F8F00BFFDE7FF22CF
:102AF000D0E75A22CEE770478C3F030000E0014048
:102B000000ED00E00400FA05044B9A6BF1EE103A78
:102B1000136C23F09F031364704700BF00EF00E0C5
:102B2000054AD2E900316FF07F401B1841F10001E6
:102B3000C2E90031704700BF6814002008B5084A98
:102B4000084909481FF0D4FA40B907481FF00EFBA6
:102B5000BDE80840044801211FF070BB08BD00BF5C
:102B6000BD2C0000903F030008000020094B0A4ADA
:102B70001B68D3F80415094BD3E900030918A1FB1E
:102B8000020143F1000302FB0311C00B40EA414084
:102B9000C90B70470800002040420F006814002055
:102BA00038B50F4B1A680D46D2F80415D2F8043523
:102BB0009942FBD00B49D1E900240B499B1844F101
:102BC0000002A3FB013401FB0244DB0B43EA444354
:102BD000E40BC0E900342FF02DF9286038BD00BFA8
:102BE000080000206814002040420F002DE9F8433F
:102BF0000646894617460AB37F2822D81318802B29
:102C00001FD800F019FB804600F0C0F8054648B117
:102C100000F098F8044628B1404600F012FB204628
:102C2000BDE8F8833A464946B0B22FF0E5FA1DB147
:102C300000F074F80446EFE72C46EDE76FF00A0465
:102C4000EDE76FF00804EAE7074930B500231424E4
:102C500004FB03F5DAB26D5C854203D00133042B2B
:102C6000F6D11A46104630BD7014002010B5094B3D
:102C700000211A465C78844201D11C7C34B90131B0
:102C8000042903F11403F5D1002010BD142000FB2A
:102C90000120FAE770140020074A00231046117C37
:102CA00031B10133042B02F11402F8D10020704736
:102CB000142202FB0300704770140020052813B58E
:102CC00004D102B0BDE81040FFF72ABF0190FFF722
:102CD000BBFF03281CD80F4B142404FB0034D4E999
:102CE00001309847637C01990B4863B10368D3F8BE
:102CF0000425E3681A4422F07F42012302B0BDE8B4
:102D000010401FF059BA02B0BDE810401FF03ABAA7
:102D100002B010BD701400201000002038B5084D1E
:102D200000F08AFA2B78044623B902202FF0E6F847
:102D300001232B70204600F084FA002038BD00BF2C
:102D40001800002038B50F4D00F076FA2B780446B5
:102D50009BB14FF4A0610C4800F042F84FF4C870EA
:102D600000F0B6FA4FF41061074800F039F84FF45C
:102D7000FA7000F0ADFA00232B70204600F061FAE3
:102D8000002038BD1800002028000020014B1878D2
:102D9000704700BF1800002070B5084C064600259B
:102DA0002368B34203D163680BB1A0689847043528
:102DB000182D04F11004F3D170BD00BFC014002021
:102DC0001F2886BF00F01F00044B4FF0A04300F502
:102DD000E07053F8200000F001007047000300503D
:102DE000D0E9003203F01F0370B543EA421369B91A
:102DF0001F2B86BF03F01F031A4A4FF0A04203F5B2
:102E0000E073022142F82310002070BD480754BF30
:102E1000C1F3C004032411F400650CBF002603268F
:102E2000C1F300221F2B88BF03F01F0342EA4202B6
:102E300042EA84028CBF0B484FF0A04003F5E074D7
:102E400042EA062240F824201DB101229A40C0F82F
:102E500008254A0542BF012202FA03F3C0F80C35E7
:102E6000D2E700BF00030050D0E9000300F01F00CC
:102E700040EA431389B11F2B8ABF094A4FF0A04291
:102E800003F01F03D2F81005D84010F001001DBF59
:102E9000012300200B70087070476FF00A00704724
:102EA0000003005037B5D0E9005305F01F050C466C
:102EB00045EA43151EF0D8FE78B114F4805313D1BF
:102EC0002F4A52F823108D4217D12846FFF778FF7A
:102ED000012818D16FF00A000DE01EF07FFE0028D7
:102EE000EBD06FF0050006E028461EF095FF28465F
:102EF0001EF0B4FF002003B030BD0433182BE0D126
:102F00006FF01800F7E714F4F83FE3D004F4C0338F
:102F1000B3F5803F2FD0B3F5C03F07D0B3F5004FD6
:102F2000D8D1184BB3F803205B7902E0154B1A880F
:102F30009B78ADF804208DF80630019BADF8003089
:102F400022074FEA13438DF8023044BF01238DF866
:102F50000130630748BF03230B4A48BF8DF8013097
:102F6000694628461EF08AFE0028C9D1012128465C
:102F70001EF004FFBEE7034BDA881B7AD9E700BFD7
:102F8000C0140020963F0300992D000070B5D0E9D1
:102F9000004304F01F0444EA43142046FFF710FFE7
:102FA000012822D0124B00200501EE58B44207D16F
:102FB0002B449A600122C3E900411A73002016E0F5
:102FC00001300628F0D10A4D00202E7B16B903EB04
:102FD0000013EEE70130062805F11005F5D1204673
:102FE0001EF01AFF6FF0180001E06FF00A0070BDCC
:102FF000C014002010B5044608B9002010BD0830E8
:1030000000F021F90028F8D000230370044A054B92
:103010004480436013681B1B13600830EEE700BF59
:1030200058000020ADDEADDE414338B50C4602D17C
:103030000023184638BD01F1080000F004F90546E8
:103040000028F5D000F1080322460021184616F0AA
:10305000AFFB00222A70044A6A60044A6C8011683F
:10306000091B03461160E4E7ADDEADDE5800002029
:1030700010B508B30828A0F1080318D010F8082CE0
:103080000E495868884205D00D4B0E4A34210E482F
:1030900016F0F4FA022A03D90C4B0A4A3521F6E756
:1030A0000B485C8850F82210214440F82210BDE8FB
:1030B0001040184600F0C9B80346F8E7ADDEADDEB3
:1030C0009F3F0300A6400300B63F03002F400300CC
:1030D0005800002070B50C4658B130F8066C10F856
:1030E000085CA0F10803A21B3CB9FFF7C1FF002058
:1030F00070BD034606460546F5E7022D05D9154B7A
:10310000154A4921154816F0B9FA3BB158681449D7
:10311000884203D0134B104A4A21F3E7002A04DB0C
:10312000114951F825108A42E1D804F108011846E6
:1031300000F08DF80028DAD0094B43600A4B448038
:103140000570341B53F82560344443F8254008309B
:10315000CEE700BF2F4003009D400300B63F0300B1
:10316000ADDEADDE4B4003005800002070B50C46CC
:10317000054608B9002070BD022905D90D4B0E4A3D
:103180000E48602116F07AFA0D4E56F8213083422F
:10319000F0D3083000F057F80028EBD0094B4580F9
:1031A0000470436056F824305B1B46F82430083026
:1031B000E1E700BF6A4003008F400300B63F030011
:1031C00058000020ADDEADDE4143F8B515460C4693
:1031D00002D100231846F8BD022A05D9114B124A24
:1031E0001248772116F04AFA114F57F822308B42D5
:1031F000EFD301F1080000F026F806460028E8D0D9
:1032000000F1080322460021184616F0D1FA094AB7
:1032100074803570726057F82510091B47F8251027
:103220000346D7E76A40030081400300B63F03002E
:1032300058000020ADDEADDE08B51DF09FFF002078
:1032400008BD1DF0A5BF1EF07FB81EF0F9B870B51F
:103250000C46064628B9C1B1BDE8704008461EF0CC
:1032600073B891B108461EF06FF8054658B156F88C
:10327000042C083AA24228BF2246314616F08AFAA8
:1032800030461EF0DDF8284670BD2546FBE70000FD
:1032900008B51DF0D5F9044B002158434FF47A735B
:1032A000B0FBF3F008BD00BF40420F0013B5074C60
:1032B00023782BB9019020F0BBFF012301982370E4
:1032C00002B0BDE8104020F0D1BF00BF20150020A3
:1032D00013B5074C23782BB9019020F0A9FF0123E7
:1032E0000198237002B0BDE8104020F0B3BF00BFCA
:1032F0002015002008B51DF061F9002008BD000070
:1033000008B5034903484FF41C7216F043FA08BD90
:10331000B0400300D805002000487047D8050020C1
:1033200000487047D805002000487047100600206C
:10333000014B93F868027047D8050020014B83F8D1
:1033400068027047D805002073B5184D2B6863B923
:103350001748052208211CF0C0F8286028B9154B31
:10336000154A1648472116F089F9154E28684FF07E
:10337000FF3269461CF01CF90028F7D1009B022B94
:1033800008D0042BF2D14FF4FA70FFF78FFF00F052
:10339000B7FDEBE7019800F0FBF9044600F00CFAEA
:1033A0003146436920469847E0E700BF34170020C4
:1033B0003817002020430300B64303002F430300C7
:1033C0002115002013B54FF40060FFF713FE0C4CDD
:1033D0004FF400630322CDE90032A0600346094A9E
:1033E000094800211CF01AFA206030B93821012068
:1033F00002B0BDE81040FFF71DBA02B010BD00BF1B
:1034000024170020AE43030049330000074B1B681C
:1034100007B53BB10223CDE90030054B694618687A
:103420001CF09EF803B05DF804FB00BF24170020D9
:103430003417002007B500230193064B064C5D6846
:10344000A847052201A920681CF0CCF900F0BCF8BF
:10345000F6E700BFF83D030060170020074B1B682C
:1034600010B54BB1FFF7E8FE044600F059F82046CE
:10347000BDE81040FFF7E5BE10BD00BF6417002097
:10348000044B1B6823B1044B002118681CF0A1B940
:10349000704700BF641700206017002007B54FF485
:1034A0000070FFF7A7FD4FF400720221CDE9002163
:1034B0000346114A114800211CF0B0F9104B186066
:1034C00018B938210120FFF7B5F91CF062F90D4B4E
:1034D000186018B938210120FFF7ACF900F014F892
:1034E00030B10921012003B05DF804EBFFF7A2B968
:1034F00003B05DF804FB00BFBF4303003534000098
:10350000641700206017002008B51CF079F8034B01
:103510001860B0FA80F0400908BD00BF7097002025
:1035200038B5094D4FF0FF3128681CF087F8044684
:1035300038B9064B9880588028681CF0A3F82046BC
:1035400038BD0120FCE700BF7097002068170020FD
:10355000F8B5164E04460D46306840F621311CF091
:103560006DF808BB12494B888A885F1CD21BC2F3D6
:103570000E02954215DB0921FFF75CF909240BE0E7
:10358000CA1810F8014B94710133C3F30E032A1AC1
:10359000002AF5DC4B80002430681CF073F82046CC
:1035A000F8BD20462544F2E70124F8E77097002093
:1035B0006817002007B5FFF7CBFF0190FFF760FF0A
:1035C000019803B05DF804FB2DE9F0412A4E4FF05D
:1035D000FF3130681CF032F800284AD1274DAF88FF
:1035E0006C88E41BC4F30E0434B9002430681CF06A
:1035F00049F82046BDE8F08102F038F8032824D0CD
:10360000402C1F49A0463B4628BF4FF040080022EF
:10361000E8180132807901F8010B01339045C3F3BA
:103620000E03F5DCAB80FFF783FEA8B1402C2146EA
:10363000134828BF4021FFF7B4F80028D5D01B213C
:103640000020FFF7F7F81B24D0E70E4B5B69984783
:103650000028D5D10124C9E70A4B09489B68414697
:1036600098470028C1D10B21FFF7E4F80B24AF8065
:10367000BCE70124BDE700BF709700206817002059
:10368000749700201C3F03002DE9F7438046FFF7A5
:10369000D3FD3A4C3A4E07460025B8F80A301BB91C
:1036A0003846FFF7CEFD0AE00DF10701404601F074
:1036B0008DFF814638B93846FFF7C3FD4D46284691
:1036C00003B0BDE8F0839DF80730082B01D07F2BB5
:1036D00010D12C480321FFF76DFF23880BB1013B6C
:1036E00023802388B3F5007F21BF0023238002239A
:1036F0003370D2E701210DF10700FFF75BFF9DF862
:1037000007300A2B01D00D2B0CD12288002AE8D0DB
:103710003378002BE5D11C490A20022588542380E8
:103720003570DEE7208896F800C01749421CBCF1CE
:10373000020F0B5492B20BD17B2B08BF134922808E
:1037400009BF0123002333700B7018BF3370C8E723
:103750002280BCF1000FC4D07B2B04D10B4A13781C
:1037600001331370BDE77D2BBBD108480378013BC3
:10377000DBB20370002BB4D1CEE700BFB6970020B8
:1037800064000020C543030021150020B4970020E9
:1037900010B50446408930B100F00EF803692046A8
:1037A000BDE81040184710BD014B024A1A6070472F
:1037B00048080020D0430300014B1868704700BF41
:1037C00068000020034B044A002818BF034613601A
:1037D000704700BF480800206800002008B5FFF7C8
:1037E0009BFDD0F8600208BD002025F0CFB9000095
:1037F00038B505464FF49670FFF7FCFB044608B356
:10380000114916F084FF284616F089FFB0F5907F25
:103810000BD82946E01D16F07AFF284616F07FFFE8
:1038200007300A49204416F072FF204616F077FF51
:10383000074B01465B68204698472046BDE8384064
:10384000FFF716BC38BD00BFEC430300B25D0300B8
:103850006C0000202DE9F04F022889B0064600AF29
:103860000D464DD1084616F05AFFDFF87C81DFF88F
:103870007CA15349C8F800A081466B1E13F8014F84
:10388000002C41D12B783C737B2B45D1284601F08D
:10389000D5FD8346002849D04A4901F0D3FD03698C
:1038A000002B45D048497B60584601F0CBFD0446CB
:1038B00030B17B68454907F10C02184616F090FEBE
:1038C000434AC8F800A0D8F80030934232D36C467F
:1038D0008EB0404A07F10C033221684616F02CFEE8
:1038E0006846FFF785FFA546BBF1000F02D058469A
:1038F00001F08EFB5FFA89F20021284615F058FF8F
:103900002437BD46BDE8F08F0A5D02F00302022AAB
:1039100008BF203C1C70B1E72F4907F1080307F1ED
:103920000C02284616F05CFEA346C9E70446C7E72A
:103930001C46C5E7196859B307F10C007B6016F007
:10394000DCFE7B68224A824610BB1B793BB1012B0F
:1039500015D1FFF731FF0379012B18BF0126FFF7BF
:103960002BFF83692BB15968D8F800201B7A534587
:1039700007DC012E10D11948FFF73AFFB4E7012602
:10398000EDE701EB0A10824206D00AF1010AEEE7E8
:103990001033C8F8003096E7D8F80030B9689B6853
:1039A000224628469847044638B116F0B8FE0C4B1C
:1039B00001465B682046984796E70A48DCE700BF67
:1039C0006D8B0300F7430300004403000B44030026
:1039D00030030000294403000F4403001644030091
:1039E0006C00002040440300B89700200002000053
:1039F00007B5FFF733FD074B07485B68022198477F
:103A0000064B019301A825F0E7F8054803B05DF8DF
:103A100004FB00BF6C000020B25D0300D043030034
:103A2000F049030001F074B87FB5002306460C4648
:103A30000093FFF779FC104905466B4601AA304612
:103A400016F0CEFDC0B2022807D095F8B8100B488A
:103A500001F0DCFD0A4804B070BD012C06D804F06A
:103A6000010385F8B83085F86440F3E7054821463E
:103A700001F0CCFD0448EEE70F4403004A44030084
:103A8000F049030056440300E94903002DE9F341DE
:103A9000464B186800909B88ADF804304FF4AF7027
:103AA000FFF7A8FA074600287CD045F65A2240497D
:103AB000404EDFF8588116F073FD3F49B81D16F0EF
:103AC00026FE3E4A3E4907F1110016F069FD00F15D
:103AD0001105FFF771FE7C1902683A49204616F07D
:103AE0005FFD054438496A46781916F059FD2C18CF
:103AF000364B374A3749384D381916F051FD04F125
:103B000021003649384416F002FE2934B54207EB4D
:103B100004003CD310F8013C31492C2B08BF04F1C0
:103B2000FF34381916F0F3FD2DF0DEFF261DBC1909
:103B300002462C49204616F033FD064405F040FBB2
:103B4000BC1902462849204616F02AFD3418274998
:103B5000381916F0DCFD221F2549B81C16F020FD8F
:103B60007B23A01C2349BB71384416F0D0FD224BA7
:103B700004345B68214638469847B4F5AF7F0DDDC5
:103B80001E4B1F4A1F4840F2C51115F077FD55F82E
:103B9000102B414616F004FD0444B7E73846FFF702
:103BA00067FA194F384602B0BDE8F081AE45030010
:103BB0007A4403008002000081440300889D0300D2
:103BC0008D4403009E440300B4440300C644030034
:103BD000CF440300DB44030050020000EE44030026
:103BE000FD44030002450300104503005356030043
:103BF0007C440300B25D03006C00002024450300F8
:103C0000BF5003003C450300F0490300F7440300A4
:103C1000F0B50E1E89B0054617460BDD1C49304431
:103C200016F075FD284616F07AFD01462846FFF786
:103C3000C1FC0026174B0793384616F070FD07AA03
:103C40000446104616F06BFDC4F12404B4EB4003A7
:103C500017D411490391A3EB630007AACDE90170C2
:103C6000009104920D495B10284616F099FC2846F5
:103C700016F055FD01462846FFF79CFC304609B07A
:103C8000F0BD07493A46284616F08AFCEFE700BF28
:103C9000B25D03002D2D2D00C8430300B445030081
:103CA0008053030070B586B00646FFF735FB044627
:103CB000FFF73AFB2249054603AB30466A4616F049
:103CC0008FFC022806460BD0D4F8603233B1196855
:103CD0001C4801F09BFC1C4806B070BD1B49F7E76F
:103CE0001B4903A816F009FD28B91A4BC4F8603225
:103CF00085F82402EFE7184903A816F0FEFC30B956
:103D0000164BC4F86032012385F82432E3E71449E6
:103D100003A816F0F2FC18B9124BC4F86032DAE7C7
:103D20000A4903A816F0E9FC28B90F4BC4F8603221
:103D300085F82462CFE70D4801F068FC0C48CBE71A
:103D4000C5450300CC450300F0490300C943030007
:103D5000DA4503004C030000E0450300680300005F
:103D6000E645030030030000D0430300EF450300A5
:103D7000E949030010B502F018FFFFF75DFA0446A9
:103D800024F0E0FE2046FFF75CFA014810BD00BFBA
:103D9000F049030038B505461BF0CEFA044698B941
:103DA0000A480CF0CFFA044660B906F009F8044658
:103DB00030B9284603F026FB044628B105F038FC4C
:103DC0000CF0E2FA1BF092FA204638BD0000002009
:103DD0007FB5002301A80193FFF7DCFF18BB02A900
:103DE000019803F0BBFB0499104801F00FFCDDE9DA
:103DF00002210F4801F00AFC05990E4801F006FC6B
:103E0000DDE90221059B0C4801F000FC019803F05C
:103E100007FB05F00DFC0CF0B7FA1BF067FA07483A
:103E200007B05DF804FB0648FAE700BF0E46030042
:103E30002A4603004846030062460300F049030097
:103E4000E949030038B505460C4692B120440A49B9
:103E50000A3416F0A5FB272C0BDD0849281916F0AB
:103E600056FC284616F05BFC01462846FFF7A2FBED
:103E70000024204638BD00BF83460300B25D030026
:103E8000F8B506460B46144642B11268FFF7C0FE6D
:103E9000676803460025227A954201DB1846F8BD83
:103EA0002A011946BA583046FFF7CCFF01350346C0
:103EB000F1E7000013B5FFF7BFF90446002024F036
:103EC00053FE2046FFF7BDF9002301A80193FFF739
:103ED00061FF70B9019803F0E2FA019803F0A0FACB
:103EE00005F0A6FB0CF050FA1BF000FA024802B0F5
:103EF00010BD0248FBE700BFF0490300E949030099
:103F000007B5044B019301A824F066FE03B05DF8E9
:103F100004FB00BFD04303002DE9F043A5B00446E5
:103F2000FFF7FAF92D210546204616F0D9FB0028A7
:103F300000F0028120468249824FDFF86482DFF878
:103F4000649217F0BFFA0026044603961CB90120BC
:103F500025B0BDE8F08303AA3946204616F040FBA1
:103F6000012815D1039800F015FE013005D1039A00
:103F7000754904A816F014FBCDE0039800F00AFE82
:103F800028706F49002017F09DFA01360446DDE7DE
:103F900003AA4146204616F023FB01280CD10398C2
:103FA00000F01AFE013002D1039A6849E1E7039854
:103FB00000F012FEE870E4E703AA4946204616F036
:103FC0000FFB01280CD1039800F064FE013002D1F0
:103FD000039A5F49CDE7039800F05CFE6871D0E773
:103FE0005C4903AA204616F0FBFA01280AD103987F
:103FF00000F06AFE013002D1039A5749B9E7039BEA
:10400000AB71BEE7554903AA204616F0E9FA01282C
:104010000CD1039800F0C7FD013002D1039A50493A
:10402000A7E7039800F0BFFDE871AAE74D4903AA8E
:10403000204616F0D5FA01280CD1039800F04EFE68
:10404000013002D1039A484993E7039800F046FEF5
:10405000287296E7454903AA204616F0C1FA0128BE
:104060000CD1039800F044FE013002D1039A40497C
:104070007FE7039800F03CFE687282E73D4903AA9F
:10408000204616F0ADFA01280CD1039800F010FE7E
:10409000013002D1039A38496BE7039800F008FE1B
:1040A00028736EE7354903AA204616F099FA0128CD
:1040B0000CD1039800F0A4FD013002D1039A3049DD
:1040C00057E7039800F09CFD68735AE72D4903AA4F
:1040D000204616F085FA01280CD1039800F012FE54
:1040E000013002D1039A284943E7039800F00AFE01
:1040F000A87346E7254903AA204616F071FA01285D
:1041000013D1039A3F2A0DD93F230093204900235E
:1041100004A816F045FA1F4B01465B6804A89847AF
:10412000002015E785F869222BE7F3B2002B3FF456
:1041300028AF194922461CE71849224619E700BF53
:10414000894603008C46030094460300B3460300EF
:10415000D0460300EE460300F94603001247030071
:104160001B470300344703003F4703005847030041
:10417000634703007C47030087470300A047030011
:10418000AA470300C1470300CD470300E7470300E8
:10419000F34703006C0000202B4803004248030053
:1041A000AC460300C74603002DE9704C4FF49670EF
:1041B000FEF720FF8246FFF7AFF845F65A22834606
:1041C0005049504616F0ECF94F490AF1060016F036
:1041D0009EFA9BF8000000F0E4FC4C4902460AF10C
:1041E000170016F0DDF900F117069BF8030000F048
:1041F000FDFC0AEB060402464549204616F0D0F9BC
:1042000006449BF8050000F04CFD0AEB060402464C
:104210004049204616F0C4F906449BF8060000F019
:1042200058FD0AEB060402463B49204616F0B8F951
:1042300034189BF8070000F0C4FC0AEB04050246A2
:104240003649284616F0ACF925189BF8080000F00E
:104250004AFD0AEB050402463149204616F0A0F952
:1042600005449BF8090000F048FD0AEB05040246EE
:104270002C49204616F094F905449BF80C0000F0F8
:1042800021FD0AEB050402462749204616F088F96D
:1042900005449BF80D0000F0D8FC0AEB050402462B
:1042A0002249204616F07CF905449BF80E0000F0E8
:1042B00033FD0AEB050402461D49204616F070F94D
:1042C00005449BF869221B490AEB050016F068F9C2
:1042D0000544AA1F18490AF1020016F061F97B2370
:1042E0008AF8063015490AEB050016F010FA144B4F
:1042F000A91C50465B6898475046BDE8704CFEF7D5
:10430000B7BE00BF7A440300B9480300CB4803009E
:10431000D8480300E4480300F248030002490300C0
:1043200010490300204903003049030040490300BD
:104330004F490300604903007C440300B25D030061
:104340006C00002010B58CB004AB0B4901AA0446E8
:1043500016F046F9C3B2012B05D1084CFFF724FF34
:1043600020460CB010BD022B04D12046FFF7D4FD2F
:104370000028F2D1024CF1E770490300F049030034
:10438000E94903002DE9F84F4FF49670FEF732FE2D
:10439000454DDFF84881C5F80080044600283DD02F
:1043A000FEF74AFF06464148414FDFF834B116F0A8
:1043B000B6F97B6801463D4898477B683D48022135
:1043C00098474FF0000AC5F800802A683A4B9A4295
:1043D00027D3FFF7F1F90279022A52D1FFF7ECF95E
:1043E0008269002A4DD0FFF7E7F9514682692046DD
:1043F000FFF746FD82462F4904EB0A0016F087F9C5
:10440000204616F08CF97B680146204698473046D6
:10441000FEF717FF2046FEF72BFE284C2046BDE88E
:10442000F88F92F80490B9F1000F13D12A68424531
:1044300019D1234A51462046FFF7EAFB8246B9F1DB
:10444000020F0CD02A68514612682046FFF7FAFC8A
:10445000824604E0FFF7B0F90279012AE6D02A6823
:1044600010322A60B1E7174B9A4201D1164AE1E7B0
:104470005A4501D1154ADDE715498A42DFD1154A6F
:10448000D8E7FFF799F90279012AB4D1124DDFF884
:10449000548006E0AA6951462046FFF7F1FC1C351E
:1044A00082464545F6D3A6E7B8970020889D0300CD
:1044B0006C000020B25D030030030000F0490300EF
:1044C000F749030050020000084A0300214B030093
:1044D000C0020000BD4F03003003000000020000D6
:1044E00090020000840300002DE9F74F06464FF4C8
:1044F0009670FEF77FFD444DDFF82481C5F80080FB
:10450000044600287ED0FEF797FEC5F80080DFF84D
:10451000148107462B68434516D33C493C4D204641
:1045200016F0F5F8204616F0FAF83A4B01465B68AB
:10453000204698473846FEF784FE2046FEF798FD51
:10454000284603B0BDE8F08F93F80490FFF734F9E4
:1045500003794B4506D12B68186860B92B68103376
:104560002B60D7E7B9F1000FF5D0FFF725F90379F4
:10457000012BF3D1EFE7314616F0BFF80028EDD15B
:1045800032462549DFF88C90204616F009F820467F
:1045900016F0C5F8D9F804300146204698472B6834
:1045A000DE680D21304616F09BF8F0B9DFF878B0E0
:1045B000DFF878A05A4633464E21204615F0BCFF5E
:1045C0000190204616F0ABF85146204416F09FF8B3
:1045D000204616F0A4F8D9F8043001462046984742
:1045E000019A4D2A09DD4D36E4E7304616F097F87A
:1045F000D9F804300146304698472B6843458CD2A1
:10460000064D97E7054D9BE7B897002081490300C9
:10461000E94903006C00002079490300F0490300D8
:104620000002000030030000C9450300B25D030032
:1046300030B587B00C4615460E496B4603AA15F0F7
:10464000CFFF012804D0022808D0002007B030BDD9
:104650002A46214603A8FFF795FEF7E79DF80030AC
:104660002A46214623B90DF10100FFF73DFFEDE792
:104670006846FAE7A8490300FFF7B0B870470000A2
:1046800007B5FFF7F9FF019010B101A824F0A4FAD3
:10469000134B144C5D68A847C821684624F0A8FA5B
:1046A000013019D0FFF788F8C3681BB1FFF784F811
:1046B000C36898470020FFF785F81BF0F9F80098C9
:1046C000FFF780F8009B9B680BB100209847236997
:1046D00098471BF0EDF8DEE7FFF7D0FFF7E700BFE4
:1046E000F83D03001C3F030007B541F2CC00FEF784
:1046F00081FC41F2CC020521CDE900210346084AA4
:10470000084800211BF08AF830B93821012003B095
:104710005DF804EBFEF78EB803B05DF804FB00BF54
:10472000C6500300814600007FB5002306460C46B4
:104730000093FEF7FDFD144905466B4601AA30467D
:1047400015F04EFFC0B2022806D01048294600F0EE
:104750005DFF0F4804B070BD012C0ED83DB10CB9FF
:10476000FEF718F804F00100FEF7E8FDF1E7002C71
:10477000F8D00848FDF7CEFFF4E70748214600F0DF
:1047800045FF0648E6E700BF0F440300CE50030094
:10479000F04903000D34000056440300E9490300CA
:1047A000F8B51AF0C9FD044628B12048204C00F0A5
:1047B0002DFF2046F8BD4FF40070FEF71BFC0546A8
:1047C00030B91C481A4C00F021FF1AF08FFDF0E7B9
:1047D000FEF732FD8022064629462046FEF706FAFD
:1047E00004463046FEF72DFD3CB11348104C00F056
:1047F0000DFF2846FEF73CFCE7E71048104E114F2E
:1048000000F004FF55F824202146304600F0FEFE5B
:104810007F2C02D0384600F0F9FE0134802CF1D113
:1048200009480A4C00F0F2FEE3E700BFDA5003004B
:10483000E9490300FA5003002151030041510300EC
:1048400052510300EA44030064510300F04903009D
:104850002DE9F0412DED028B0024B6B03D2221461A
:10486000054606A8059414F0A3FF00220023CDE915
:10487000022321467C2217A80194169414F098FF75
:104880001AF05AFD30B16F4C204636B0BDEC028BA9
:10489000BDE8F0810BF056FD04460028F3D16A49CB
:1048A000284616F00FFE6849204616F00BFE4022FF
:1048B000014605A815F04FFF644905AB13F8014BFD
:1048C000BCB916AF8022394605A80BF0DDFC061EE8
:1048D00018DA5F4805A900F099FE2746594C0BF0FD
:1048E00053FD1AF003FD002FCED03846FEF7C0FB73
:1048F000CAE70A5D02F00302012A08BF203403F868
:10490000014CDBE75049204616F0DCFD0546A0B916
:104910005048514D05A900F079FE741E631C06D164
:104920004E48314600F072FE00274D4CD7E7395D06
:10493000284600F06BFE013CF0E7042E15DC022E49
:10494000224621460EDC16F09DFE019001AD274661
:104950003246294605A80BF03DFC00285ED02968A8
:1049600040483AE016F00CFFEFE7082E07DC22463D
:10497000214616F0A7FF02ADCDE90201E7E7304678
:10498000FEF738FB074630B39FED378ADFED378AF5
:104990004FEA66082B78302B22D16B7803F0DF03C7
:1049A000582B1DD100221146284616F06BFE03B28B
:1049B00027F814302449002016F084FD0134A04566
:1049C000054625D00028E5D129482346324605A9C9
:1049D00000F01CFE82E7274805A900F017FE7DE7DE
:1049E0000021284616F012FDB5EEC00AF1EE10FACD
:1049F000BBBFF0EE687A40EE487ABEEEEA0AFDEE02
:104A0000E77AACBF10EE103A17EE903A1BB2CFE740
:104A1000194805A900F0FAFD3D4699E70D48DFF871
:104A2000388005A900F0F2FDAC19AC4204D10B4866
:104A3000314600F0EBFD78E714F8011D404600F028
:104A4000E5FDF2E7E9490300788C03006D8B030074
:104A5000CF510300F0510300685D0300F7510300DC
:104A6000F04903009C52030000000045000080470D
:104A70003152030004520300765203002DE9F0473F
:104A8000B0B000217C2211A8109114F091FE1AF010
:104A900053FC18B1194830B0BDE8F0870BF052FC58
:104AA0000028F7D1DFF85C80DFF85C90DFF85CA0CD
:104AB00004466946A0B20BF01DFB28B10BF064FC64
:104AC0001AF014FC0E48E6E76946404610AF00F0C5
:104AD0009DFD8022394668460BF0D6FB0546461EF2
:104AE000002E05DA2946504600F090FD0134E0E73B
:104AF000B95D484600F08AFD013EF1E7E94903004F
:104B0000F0490300F0510300685D0300F751030012
:104B1000F0B5C1B068461AF0CEFC0A2104A81AF01C
:104B200091FC134A1349144F0546144800F06EFDDA
:104B300004AC0026AE4211DB039A1149114800F083
:104B400065FD019A10490F4800F060FD029A0F4977
:104B50000C4800F05BFD0E4841B0F0BD6369E268AF
:104B60002146384600F052FD01361834E2E700BF16
:104B7000625303006E530300855303007A5303000E
:104B800095530300A0530300AB530300BD53030030
:104B9000CB530300052803D0092818BF4FF0FF307E
:104BA0007047FFF7F7BF40F25233984207D041F603
:104BB0009A23984214BF4FF0FF3001207047002025
:104BC000704730B1012841F69A2018BF4FF0FF30EE
:104BD000704740F25230704704381C289ABF024B8D
:104BE00018564FF0FF307047D053030003289ABF88
:104BF000024B18564FF0FF30704700BFED530300D3
:104C0000B0F5807F17D009DC402816D0802816D058
:104C1000202814BF4FF0FF3003207047B0F5806F9D
:104C20000FD0B0F5006F0ED0B0F5007F14BF4FF07D
:104C3000FF303F2070471F207047072070470F202C
:104C400070477F207047FF2070471F2815D009DC70
:104C5000072815D00F2815D0032814BF4FF0FF30B8
:104C6000202070477F280FD0FF2810D03F2814BF86
:104C70004FF0FF304FF4007070474FF48070704772
:104C800040207047802070474FF4806070474FF499
:104C900000607047A0F10903042B28BF4FF0FF30DC
:104CA0007047A0F10903042B28BF4FF0FF30704775
:104CB000032802DC40EAE0707047082818BF4FF074
:104CC000FF307047FFF7F4BF042828BF4FF0FF30D4
:104CD0007047042828BF4FF0FF307047022828BFD4
:104CE0004FF0FF307047022828BF4FF0FF30704769
:104CF000022828BF4FF0FF307047022828BF4FF02E
:104D0000FF307047012802DC40EAE070704703285A
:104D100018BF4FF0FF307047FFF7F4BF7047FEF742
:104D200049BC002210B504461046A15CA1F1300335
:104D3000092B0BD8A0F13003032A01EB030002F189
:104D4000010218BF0001042AEFD110BDA1F14103F7
:104D5000052B02D8A0F13703EEE7A1F16103052B83
:104D600002D8A0F15703E7E70020EEE72DE9F84F5E
:104D70000A688B6880465D1CD018D35C222B8A465B
:104D8000154440F0DD804C682F460023B91AA1423B
:104D900080F0D680397822290ED1C3F10103381A68
:104DA000DAF81020184490478346002800F0C880A5
:104DB000DFF8989104460FE05C2905D10137B91A54
:104DC0008C4240F2BD8001330137DFE72B785C2B4A
:104DD00012D004F8013B0135BD42F7D30023237004
:104DE0001023C8E9033BDAF80030FB1A0133CAF894
:104DF00008300120BDE8F88F7A1B002A0DDD6B78A2
:104E0000752B0AD86D2B12D8622B2BD026D82F2BBE
:104E100029D05C2B27D0222B25D0DAF81430584625
:104E20009847DAF80000281ACAF808008BE06E3BB1
:104E3000072BF2D801A151F823F000BF714E0000FA
:104E40001B4E00001B4E00001B4E0000754E000064
:104E50001B4E0000794E00007D4E0000662BDCD119
:104E60000C2300E0082304F8013B02231D44B3E7B0
:104E70000A23F8E70D23F6E70923F4E7052ACCDD3A
:104E8000A81CFFF74EFFA0F55C43B3F5806F064604
:104E9000C3D3A0F55843B3F5806F2DD2AB1DFB1AD9
:104EA000052BBADDAB795C2BB7D1EB79752BB4D17F
:104EB00005F10800FFF735FFA0F55C43B3F5806FFF
:104EC000ABD209EA8626C0F30900304300F58036EC
:104ED0000C234FF0F00C042000F1FF3E54FA8EFE3C
:104EE000A645F2B224D1012814BF42EA0C0202F016
:104EF0007F0222700444B9E77F280AD9B0F5006F19
:104F00000CD3B0F5803F0ED3B0F5881F85D20623B1
:104F1000DFE706234FF0000C0120DDE706234FF00A
:104F2000C00C0220D8E706234FF0E00C0320D3E7A3
:104F300002F03F0262F07F010EF80119B609CFE7D7
:104F4000002D7FF46EAF002054E700BF00FC0F007F
:104F500010B540B1016871B142688368934206D2CE
:104F6000CC5C202C00D910BD01338360F5E7FAD169
:104F7000013A8260F7E70846F5E70000F8B50D460C
:104F80000446002834D0002931D08468FAB9194E7B
:104F900074B3236AC3B1AB4221D005F1FF3C013B9E
:104FA0001CF8011F8A5D02F00302012A13F8012F89
:104FB000B05C00F003000F4608BF01F12007012894
:104FC00008BF203297420FD02468E1E724687CB103
:104FD000216A21B1284615F090FB0028F6D1236AFA
:104FE000002B08BF002403E00029D9D1F7E70C46C5
:104FF0002046F8BD6D8B030010B503462820984766
:10500000044618B12822002114F0D2FB204610BD1E
:1050100070B5104D044604B970BDE3682668D90523
:1050200003D4A06868B9206988B9E3689B0503D4F4
:10503000206A08B16B68984720466B6898473446E9
:10504000E9E7FFF7E5FFE368DA05ECD5EDE76B6824
:105050009847EAE7740000202DE9F047064692B031
:105060000C4609B9002023E00F68002FFAD08D68A4
:10507000D1F8048005F10409C1450BD890490422F8
:10508000781915F054FB28B90423F360C4F808908C
:1050900001200DE005F1050AD0450CD38949052210
:1050A000781915F044FB30B90120F060C4F808A06D
:1050B00012B0BDE8F087C1450CD8834904227819A5
:1050C00015F035FB30B902230120F3607061C4F89C
:1050D0000890EDE74545C5D27B5D222B07EB050027
:1050E00006D12146304612B0BDE8F047FFF73EBE7C
:1050F0002D2B03D0A3F13002092A62D8002302AA83
:105100000193A8EB050517464FF02E0E10F8011B72
:10511000392910D82A291BD9A1F12B0CBCF10E0F6B
:1051200016D8DFE80CF00D150D3B150D0D0D0D0D0E
:105130000D0D0D0D0D0001F0DF0CBCF1450F07D179
:10514000117001333F2B02F1010201D0AB42DDD1DE
:1051500048336B44002503F8405C01A9384616F03B
:1051600049F9DDF804A0BA4559EC108B3FF47AAF49
:1051700086ED060B50A3D3E9002310EE100A494632
:105180002EF008FB68B16FF000437361AAEB070AC9
:10519000A76808235744F360A76079E782F800E026
:1051A000CFE74A4B0022404649462EF0E9FA10B1BB
:1051B0004FF00043E9E7404649462EF015FB706189
:1051C000E4E75B2B51D1E368B3F57A7FBFF44AAFD4
:1051D0000133E3607B5D5B2B7FF444AF0135A56059
:1051E0002046FFF7B5FED4E9012393425ED2226840
:1051F000D25C5D2A0AD10027E368013BE3602023EB
:10520000C6E90273A3680133A36041E7013B0025AF
:10521000A3602F462069FFF7EFFEA8460546002849
:1052200000F09B80FFB1C8F80000C0F80480A368BC
:105230000133A3602046FFF78BFE21462846FFF787
:105240000BFF002800F08C802046FFF781FED4E998
:105250000123934280F084802268D35C2C2BD9D028
:105260005D2B7DD1C8E70746E1E77B2B7FF4FAAEE3
:10527000E368B3F57A7FBFF4F5AE0133E3607B5D9D
:105280007B2B7FF4EFAE0135A5602046FFF760FE73
:10529000D4E90123934209D22268D25C7D2A17D136
:1052A0000027E368013BE3604023A9E7013BA360DB
:1052B000D8E600BFAFF300800000C0FFFFFFDF4172
:1052C000F1530300F6530300FC5303000000E0C158
:1052D0000025013BA3602F46A8462069FFF78CFEFE
:1052E000A9460546002838D0AFB3C9F80000C0F879
:1052F0000490A3680133A3602046FFF729FE2146EE
:105300002846FFF733FD58B32046FFF721FE2B69EF
:105310002B62D4E901239342C5F8108020D2226881
:10532000D25C3A2A1CD10133A3602046FFF710FE5D
:1053300021462846FFF790FE90B12046FFF708FE71
:10534000D4E9012393420BD22268D35C2C2BC4D026
:105350007D2B05D1A5E70746CBE7002F3FF482AEB2
:105360003846FFF755FE7DE62DE9F043304F89B012
:1053700005460E46904600211C2201A84FF0000968
:1053800014F016FAC7E90099002D48D02846019577
:1053900015F0C5F9274B0130029093E8070008ABE0
:1053A00003E90700FFF728FE044668B3019870B1CF
:1053B000039B5BB9029B042B06D91F49032215F0FE
:1053C000B6F908B90323039301A800E04846FFF7A4
:1053D000BFFD01462046FFF73FFE90B1B8F1000F38
:1053E00004D1F6B9204609B0BDE8F08301A8FFF763
:1053F000AFFDDDE90223934203D2019AD35C002B77
:10540000EFD02046FFF704FEDDE902329A420DD3C9
:1054100003B1013B0EB1EA183260C7E90053002422
:10542000E0E7019B039A13443360DBE71346F1E79F
:10543000BC97002074000020135403000022114682
:10544000FFF792BF0022FFF799BD000008B528B909
:10545000094B0A4A16210A4814F010F919B9094BE8
:10546000064A1721F7E7828000220160C28082602D
:105470008281C38108BD00BF17540300F7540300A5
:105480001C5403008B54030010B528B90D4B0E4A71
:105490000E482C2114F0F2F882884489C388D31A6C
:1054A000121B8489121B91429BB209DCC2899A4269
:1054B00082BF83810023C380C3880068184410BD65
:1054C0000020FCE717540300E15403001C540300C0
:1054D00010B528B9084B094A0948412114F0CEF803
:1054E000C38882880B44B3FBF2F402FB1433C380FD
:1054F00043891944418110BD17540300CC54030063
:105500001C54030038B50D46044628B9084B094A17
:105510000948482114F0B2F80121FFF7B5FF28B17E
:10552000057001212046FFF7D3FF012038BD00BFE1
:1055300017540300B95403001C5403002DE9F04133
:105540000B46044628B91D4B1D4A67211D4814F01F
:1055500095F819B91C4B1A4A6821F7E745890DB32C
:10556000954228BF154686890289B0F804800168F3
:105570001644B6B2A8EB0607BFB2BD42114414D917
:1055800018463A4614F006F92E442168EA1B3844BE
:1055900014F000F9A6EB08060023A3812681638995
:1055A0005B1B63812846BDE8F08118462A4614F04B
:1055B000F1F823892B442381F1E700BF175403003E
:1055C000995403001C5403009454030008B528B9EF
:1055D0000A4B0B4A5A210B4814F050F819B90A4BE0
:1055E000074A5B21F7E7438933B10122FFF7A6FFA2
:1055F000003818BF012008BD1846FCE71754030007
:10560000A85403001C540300077C03000FB437B5F3
:10561000114C06ABD4F8000253F8042B019340213F
:1056200004EB801016F084F9D4F8005204EB8515D1
:10563000284615F074F8094B01465B6828469847E0
:10564000D4F80032013303F00703C4F8003203B08A
:10565000BDE8304004B07047C49700206C000020C3
:10566000014B1870704700BFC8990020014B187893
:10567000704700BFC899002008B519F037FE0146F1
:1056800030B10948FFF7C2FF07210120FDF7D2F82A
:1056900006481AF091F900F04FFC19F035FEBDE80C
:1056A0000840FDF73BBB00BF04550300CC99002028
:1056B00030B585B000F08EFB014638B10390184834
:1056C000FFF7A4FF03990120FDF7B4F81AF061F881
:1056D000144C606018B938210120FDF7ABF84FF485
:1056E0000060FDF787FC01254FF40063CDE900352C
:1056F000A06003460C4A0D4800211AF08FF8206084
:1057000018B938212846FDF795F800F0FDFB20B1C7
:1057100005B0BDE83040FFF7AFBF05B030BD00BFFA
:105720002B550300CC99002056550300B5580000B6
:105730002DE9F04F2DED028B83B008EE103A0E9E4E
:1057400083460F461546002E40F0898006294FF407
:10575000967084BF01260627FDF74CFC0446002CFA
:1057600000F08D80F8EEC87ADFF8449117EE900AC9
:105770002DF032FD4CA3D3E900232DF085FD2EF052
:1057800033F8414945F65A228246204614F008FF74
:10579000204614F0C4FF3D49204414F0B8FF4FF0F8
:1057A0000008204614F0BBFF47455FD81EB13849BA
:1057B000204414F0ACFF204614F0B1FF6B78019345
:1057C000AB7800930138EB782A793249204414F001
:1057D000E7FE204614F0A3FF2F495246204414F060
:1057E000DFFE204614F09BFF10990F9B6422494274
:1057F0005B4291FBF2F602FB161193FBF2F501916D
:1058000002FB1533109991FBF2F1204400910F999E
:1058100091FBF2F2214914F0C3FE204614F07FFF01
:105820001F49204414F073FF204614F078FF1D49EF
:10583000821FA01C14F0B4FE7B23A371204614F039
:105840006EFF01462046FDF783FE05462046FDF724
:105850000FFC284603B0BDEC028BBDE8F08F4FF47F
:105860001670FDF7C7FB0026044678E71BF80820F2
:105870004946204414F094FE08F1010891E74725B9
:10588000E7E700BFAFF300807A4403005F550300F1
:105890006F5503007255030092550300995503009C
:1058A000E35B03007C4403000000000084D7F73F63
:1058B000695503002DE9F0418AB000F079FA0446F9
:1058C00000B32F4E0027F760FDF7B6FC05463846BB
:1058D0002CF0D2FA2846FDF7B4FCF36853B970688F
:1058E0004FF0FF3209A919F07DFF0028F5D1099B7F
:1058F000012B0BD10223F360F368022B3CD00AB0DA
:10590000BDE8F0810520FDF7D1FCD6E7FDF794FC5A
:10591000B4F88079B4F882597F1BFDF792FC3B07FD
:1059200027D098226A4304EB0208A15CB8F99430AE
:105930000791971C813222440692059300F044FAA5
:10594000D8F890300293D8F88C3007992744013565
:10595000CDE9000305F00F05DDE905323846FFF714
:10596000E7FEFDF769FCA4F88259FDF76AFCFDF734
:1059700087FD19F09DFFB0E70120FDF797FCBBE71D
:10598000CC99002008B5074B1A6852B1586802211B
:1059900019F01FFF28B1BDE808403B210120FCF7AA
:1059A00049BF08BDCC990020024B1868003818BFC9
:1059B00001207047CC99002007B5022000F0FEF9C5
:1059C000044B019301A823F007F9034803B05DF8E5
:1059D00004FB00BF30030000F04903002DE9374C01
:1059E0004FF49670FDF706FB8246002875D0FDF750
:1059F00023FC019000F0DCF945F65A228346394930
:105A0000504614F0CDFD38490AF1060014F07FFE2F
:105A1000BBF8882935490AF1160014F0C1FD00F1E0
:105A20001604BBF88A2932490AEB040014F0B8FDC9
:105A300004449BF88C292F490AEB040014F0B0FDB4
:105A40000444BBF884292C490AEB040014F0A8FD97
:105A50000444BBF8862929490AEB040014F0A0FD90
:105A60002518BBF88E2926490AEB050014F098FD8D
:105A70000544BBF8902923490AEB050014F090FD7A
:105A800005449BF8922920490AEB050014F088FD93
:105A90000544DBF89C291D490AEB050014F080FD44
:105AA00005441B49AA1F0AF1020014F079FD7B226C
:105AB0008AF80620504614F032FE1649504414F07D
:105AC00026FE154AA91C5268504690475046FDF7DD
:105AD000CFFA019B1846FDF7B4FB104803B0BDE8B0
:105AE000308C00BF7A440300D4550300E555030011
:105AF000F2550300FF5503000C560300185603002F
:105B000024560300325603003E5603004A56030053
:105B10007C440300B25D03006C000020F0490300E8
:105B200008B5054B186800F684102CF055FBBDE84D
:105B3000084000202CF0A0B9E0990020FFF7F0BF4A
:105B40002DE9F04F904B2DED068BD3F800A089B0D6
:105B50000546BAF1000F00F01281BAF880B90BF1D6
:105B600001030193019ABAF882399B1A1B0700F0CE
:105B7000ED80982404FB0BF404F18100FF215044D4
:105B80002CF03EF92CF0E0FA0AEB04032A68A3F8A3
:105B90009400C3F88820DAF89C390133CAF89C399C
:105BA0002A7A12F0020200F0DF8000232AF8043083
:105BB000FDF7B6FB04462BF0C9FF744B9FED747ADA
:105BC000DFED747A20F01000984208BFF0EE477ABB
:105BD000002302A8F0EE678A8DF81D302CF0FCFB44
:105BE00063799FED6D7ADFED6D7A9DF81C00082BCF
:105BF000039B94BF17EE904A17EE104ADDED027A30
:105C00009B08B8EE679A07EE903A049B9B08B8EEA3
:105C1000E7AA07EE903A059B9B08B8EEE78A07EEE5
:105C2000903AF8EEE79ADDED067A29EE099AF8EE59
:105C3000677A00EB4000C7EE897A4500EDB217EEB7
:105C4000900A2DF0C9FA41EC100B18F0ADFE204679
:105C500059EC108B2DF0C0FA064628460F462DF061
:105C6000A9FA4F4B04460D460022404649462DF006
:105C70000BFB32463B462DF051F928EE088A804650
:105C80000AEE0A8A894618EE900A2DF0A5FA09EE66
:105C9000A98A02460B46404649462DF03FF9224666
:105CA0002B462DF03BF92DF0E7FDC8EE097A08EE02
:105CB000900A17EE900A2DF08FFA41EC100B18F0B5
:105CC00073FE374B51EC100B00222DF0DDFA3246FB
:105CD0003B462DF023F922462B462DF01FF92DF0DF
:105CE000CBFD9FED307AF4EEC78AF1EE10FA07EEA5
:105CF000900A04D4F5EEC08AF1EE10FA01DDDFED72
:105D00002A8AF4EEC77AF1EE10FA04D4F5EEC07ADE
:105D1000F1EE10FA01DDDFED247A9FED247A68EED2
:105D2000878A67EE877AFDEEE88AFDEEE77A9823A8
:105D300003FB0BA3C3ED238AC3ED247AFFF734FEE4
:105D400020B1019B03F00F03AAF88039FFF71AFE78
:105D50000AF684102CF040FA002009B0BDEC068B46
:105D6000BDE8F04F2CF088B8E9887F2928BF7F2153
:105D7000A01C2AF8041050442CF0AEF918E709B022
:105D8000BDEC068BBDE8F08FE09900200203CADE6F
:105D9000CDCC7C4233B34C426666F3C29A99E3C2DF
:105DA000000024400000F0C2000000000000C842D3
:105DB000014B1868704700BFE0990020014B186044
:105DC000704700BFDC990020014B1868704700BF86
:105DD000DC99002070B58CB019F0AEFA30B1072113
:105DE0000120FCF727FD07200CB070BD3E4C236856
:105DF00023B94FF41A60FDF7FDF8206020680028F1
:105E00006FD04FF41A62002113F0D2FCFDF788FA2C
:105E1000054619F063FA06460028E0D1FDF70CFAB2
:105E2000044630462BF0C4FE064618B12046FDF766
:105E300008FAD8E719F086F92BF088FE19F0EAFD88
:105E400001283ED12948FFF7E1FB28462BF0EEFE62
:105E500018B107210120FCF7EDFC00202CF02CF9F3
:105E600000202CF013F8002108462CF0E9F830222D
:105E70000021684613F09CFC03202CF0D3F903208A
:105E80002BF086FE1A4B01931A4B029368461A4B6D
:105E900003932CF043F80222002118482CF05EF8FE
:105EA00001202CF065F901202CF086F9FDF734FA79
:105EB00090F869022CF0CAF92046FDF7C2F90020DB
:105EC00092E7022802D10E48AE73BCE72BF03EFEEB
:105ED00001460C48FFF79AFB2046FDF7B2F9FF2078
:105EE00082E7482080E700BFE09900209E5703002A
:105EF000415B0000215B00003D5B000080D003247B
:105F0000C3570300F057030010B519F0D5F9044644
:105F100048B101460648FFF779FB01200721FCF74D
:105F200089FC072010BD0348FFF770FB2046F9E706
:105F3000135803004958030010B5044C206818B1E9
:105F4000FDF796F80023236010BD00BFE099002004
:105F50002DE9F043DFF898810B68C8F8003085B070
:105F60000D460746B0B1D1F820422402A4B2204623
:105F7000FDF740F8DFF87C914C4EC9F8000060B99D
:105F80004B4B4C485B681121984747210120FCF797
:105F900051FC5EE04FF48074E9E73046A9F8044014
:105FA00000F046FE044630B1414B43485B68142183
:105FB00098470121EAE7E989306801F07BFACDE9E9
:105FC00000493E4B3E4A31683E4802F065FA20B136
:105FD000374B3D485B681721EAE73A4802F08DFAF3
:105FE00020B1334B39485B682021E1E705F1080413
:105FF00001223068214600F0D7FF024620B12C4B29
:1060000033485B682821D3E7D8F800102D4802AB4D
:1060100002F07AFA20B1264B2E485B681F21C7E7B1
:10602000DFF8C08003992748C8F80010224601F025
:1060300001F8044620B11E4B27485B682221B7E7D0
:106040003FB1DFF8809005F1E007D5F820329C429F
:106050000BDB306801F0F0F9B0B1154B1F485B68FD
:10606000132105B0BDE8F04318473A46D8F80010B0
:10607000484602F06BFA283720B10D4B18485B6890
:10608000202195E70134E0E7164B0E48196802F02D
:1060900042FA20B1064B14485B682021E1E7134B1C
:1060A00001221A7005B0BDE8F08300BF4C9A0020B1
:1060B0006C0000206D5803007F58030094580300C3
:1060C0001D610000E49900209C580300B4580300AF
:1060D000D5580300FE5803001E59030062590300FF
:1060E00041590300449A002076590300489A002041
:1060F00080000020009A002008B5FDF715F9BDE8E2
:10610000084001460120FFF723BF08B5FDF70CF951
:10611000BDE8084001460020FFF71ABF2DE9F04F07
:10612000012887B00F46144605D0082800F03582B4
:1061300007B0BDE8F08F9D4AA1882068DFF8B4A2BF
:1061400014F0FAF93B68A18820681B68984A123954
:10615000123014F0F1F93B68A1885B68954A00F1B0
:1061600012052068491B284414F0E6F93B68A18811
:106170009B68914A05442068491B284414F0DCF9C7
:10618000A1887B688D4A05442068491B284414F087
:10619000D3F93E4605444FF000087B682068A1888B
:1061A00098452844A1EB050139DBDFF84C92844A7D
:1061B00014F0C2F9D9F804302068E91C98473B680C
:1061C000D3F81880B8F1000FB2D07E4AA1882068B9
:1061D00014F0B2F9A1882068D8F800307A4A17394B
:1061E000173014F0A9F9D9F8043000F1170120682C
:1061F0009847D8F804604FF0000AD8F800305345AB
:1062000000F2FC80A1886E4A206814F095F9D9F854
:1062100004300321206807B0BDE8F04F1847B8F1FB
:10622000000F03D0524614F087F90135B27AB6F860
:1062300008C02068A188272A96BF644B644A53F897
:10624000222000922844491B6346624A14F074F9E4
:10625000B37A0544002B40F09D80A1882068336903
:106260005D4A491B284414F067F9F37E05440BB3DB
:106270002368B6F91E0003EB0509A388A3EB050B01
:1062800019F01CFCB6F91C008DED050A19F016FC7E
:1062900010EE100A2CF0A0FF059ACDE9020110467D
:1062A0002CF09AFF4D4ACDE900015946484614F0BA
:1062B00043F9054496F8213013B3B6F92400D4F815
:1062C0000090B4F804B019F0F9FBB6F922008DED96
:1062D000050A19F0F3FB10EE100A2CF07DFF059A69
:1062E000CDE9020110462CF077FFABEB050BA9447A
:1062F000CDE900013A4A5946484614F01DF90544D3
:10630000337EB3B1B6F91400D4F80090B4F804B0F9
:1063100019F0D4FB10EE100A2CF05EFFABEB050B6E
:10632000A944CDE900012F4A5946484614F004F922
:106330000544737EB3B1B6F91600D4F80090B4F8F2
:1063400004B019F0BBFB10EE100A2CF045FFABEBCC
:10635000050BA944CDE90001234A5946484614F0EB
:10636000EBF8054496F82600A0B1D4F80090B4F8F4
:1063700004B019F0B7FB10EE100A2CF02DFFABEBB8
:10638000050BA944CDE90001184A5946484614F0C6
:10639000D3F80544A1882068154A491B284414F005
:1063A000CBF8013508F101082036F6E6A9590300BB
:1063B000BC590300D0590300E6590300F859030003
:1063C000E35B0300B95A0300D15A03009C65030044
:1063D000975903000E5A0300335A0300455A03002D
:1063E000675A0300895A0300985A0300A75A03000A
:1063F000CD9003000C5A03006C000020002E3FF4E7
:1064000097AE737FA1882068062B96BF6C4A6D4BB0
:1064100052F823306C4A14F08FF8A188B27F0546F9
:106420002068491B2844002A7ED0684B684F012A07
:1064300008BF3B46674A14F07FF8A188F37F664A9D
:1064400005442068491B284414F076F8B27DB4F85E
:1064500004B062492F1825686148C2F380033D44A7
:10646000ABEB070B0093C2F3400302F0010214F000
:1064700097F85B4B5B4A5946284614F05DF8A188B3
:10648000F37E594A07442068C91B384414F054F875
:10649000F37E0F37D3B13369544AA188206883FB58
:1064A00002329B0E43EA821383EAE3726425A2EB75
:1064B000E372B2FBF5FC05FB1C220092C91B3844B9
:1064C0004B4A93FBF5F314F037F80744A188206892
:1064D000737E484AC91B384414F02EF83D18B7683B
:1064E0004FF0000B737E9B4520DBA1882068424A59
:1064F000491B284414F020F8D8F80020013A5245EE
:1065000005F1010307D9A18820683C4AC91A18443B
:1065100014F012F8AB1CD9F80420206819469047F3
:106520000AF1010A366868E6354B83E7002F3FF42D
:10653000FFADA1882068B7F90430324A491B2844CE
:1065400013F0FAFFA188B7F906302F4A05442068F6
:10655000491B284413F0F0FFA188B7F908302B4AF3
:1065600005442068491B284413F0E6FFA188BB7A44
:10657000274A05442068491B284413F0DDFFA18801
:10658000FB7A244A05442068491B284413F0D4FFB1
:106590000BF1010B3F680544A4E70B7910684979BA
:1065A000032B96BF1C4A074A52F823201B4B53F873
:1065B00021301B4913F0F4FF1A4B01465B6829E6B2
:1065C0004C6A030097590300DF5A03009F590300E8
:1065D000A6590300EE5A0300FA5A03000B5B0300AE
:1065E000089A0020435B0300575B030000E1F505B8
:1065F000685B0300795B0300CD9003000C5A030035
:10660000A3590300855B0300915B03009B5B0300C0
:10661000A45B0300AD5B03003C6603004C66030013
:10662000B75B03006C00002038B5174B174C1A7885
:106630007AB1174D206800221A7000F00EFF296809
:10664000144801F071FF48B1134B14485B681F21D7
:1066500098472068BDE8384000F0E2BE29680D4840
:1066600001F06BFF20B10C4B0D485B682121EFE777
:10667000084801F03DFF206800F0F8FA094B18685F
:10668000FCF7F6FCE5E700BF489A00204C9A002092
:10669000449A0020E49900206C000020E75B03008E
:1066A000075C0300009A002010B50446FCF73CFE8E
:1066B000002C3CD000230362C38140F2011303810C
:1066C0000123C0F82032A0F8E430002280F825220F
:1066D000027380F8402080F8522040F609222A23D5
:1066E000A0F84C200322036080F84E20022390F88B
:1066F000652080F85030837201231A4380F86520AA
:1067000090F8432080F844304FF4166101634FF055
:10671000C80C192142F00302C0E90D1C80F8432087
:10672000523000F8013F0133092BFAD110BD01238B
:1067300003620482C3810481C0F82042C5E70000DF
:106740002DE9F04FBBB005460E46FCF7EDFD944930
:10675000DFF8A482DFF8A492DFF8A4A2044628465A
:1067600014F0B0FE002705461A2239460BA8CDE9E1
:10677000097713F01DF80DB9012652E009AA414628
:10678000284613F02DFF012819D10998FEF702FAC7
:1067900001300BD00998FEF7FDF984F84C008049D0
:1067A000002014F08FFE01370546E4E7099A7D4981
:1067B0001AA813F0F5FE7C4B01465B682EE009AB8E
:1067C0000AAA4946284613F00BFF022835D19DF846
:1067D0002830422B29D1099B0022033B84F86820F2
:1067E000032B14D8DFE803F002090B11012384F80E
:1067F0004E30022384F85030D1E70323F7E701231A
:1068000084F84E3084F85020C9E70323F8E767493D
:106810001AA813F07CFF644B5B6813211AA89847F1
:10682000002630463BB0BDE8F08F61491AA813F04E
:106830006EFF5D4B0F215B68F0E709AA51462846C1
:1068400013F0CEFE01280DD1099BB3F5166F01D3CD
:106850002363A4E757491AA813F059FF524B20218C
:106860005B68DBE7544909AA284613F0B9FE012802
:106870000BD1099D0DB1A56391E750491AA813F0FA
:1068800046FF494B1F215B68C8E74D4909AA2846C6
:1068900013F0A6FE01280DD1099B5A1EFE2A01D82D
:1068A00063637CE747491AA813F031FF3E4B22216E
:1068B0005B68B3E744490AAA284613F091FE012811
:1068C00083461FD141490AA813F017FF10B984F875
:1068D0000AB064E73E490AA813F00FFF10B902237B
:1068E000A3725CE73B490AA813F007FF08B903232A
:1068F000F6E739490AA813F000FF08B90423EFE7C7
:106900003649BBE7364909AA284613F069FE012833
:106910000BD1099D0DB1256041E732491AA813F04A
:10692000F6FE214B16215B6878E719AB059318AB8F
:10693000049317AB039316AB029315AB019314ABFF
:106940000093294913AB12AA284613F049FE0828E0
:106950000BD112AB04F1520204F15A0153F8040BAB
:1069600002F8010F9142F9D119E72049284613F0A6
:10697000C4FE10B90123237311E71D49284613F003
:10698000BCFE18B9012384F8403008E7194909AA68
:10699000284613F025FE012834D1099BE381FEE649
:1069A00089460300944603006C000020385C030015
:1069B0004C5C0300645C0300855C03008E5C030098
:1069C000AE5C0300B75C0300DA5C0300E15C03002B
:1069D000E75C0300ED5C0300F75C0300015D03006E
:1069E000215D0300275D03003E5D03006D5D030034
:1069F000735D0300775D03008C460300295C030090
:106A00005C5C03004A490AAA284613F0E9FD012804
:106A10005BD19DF82830303B0025092BC4F820526B
:106A200012D80AA866B112F047FED4F820325A1CD8
:106A3000C4F82022282202FB0343A3F8E400AEE6B8
:106A400012F03AFE2082AAE6002E3AD139490AAA6B
:106A50001AA813F0A5FD384B01465B681AA89847A1
:106A6000DFE60570187868B9531C1A78002A3FF4DD
:106A700096AE18465946079313F080FE079B0246D0
:106A80000028EED1D4F82002072808DD2B4908227F
:106A90001AA813F085FD284B27215B68BEE618462F
:106AA000079212F009FED4F820322822591C02FB6A
:106AB0000343079AC4F82012A3F8E400002AD3D1B4
:106AC0006DE6DFF890B00AABCFE71D4909AA28466A
:106AD00013F086FD01280CD10998FEF7DBF8013090
:106AE00005D00998FEF7D6F884F84D0057E6154909
:106AF000C4E6154909AA284613F072FD012810D1F1
:106B00000998FEF750F8013003D0099B84F8523001
:106B100045E60E491AA813F0FAFD074B19215B68E8
:106B20007CE6FBB2002B3FF43AAE09492A463FE629
:106B30007F5D0300B55D03006C0000208C5D0300E9
:106B4000C7460300D65D030012470300F65D03004D
:106B5000105E0300885D0300F8B506460D4681F01F
:106B60000107FCF7E1FB04469EB12D21304613F0EE
:106B7000B7FD70B12846FFF797FD29463046FFF76D
:106B8000DFFD28B1012384F8253284F82472012026
:106B9000F8BD94F82532022B03D194F82432BB427D
:106BA000F3D02846FFF780FDEFE710B5FCF7BCFBFC
:106BB00090F82532044633B990F82402B0FA80F0F8
:106BC0004009FFF771FD022384F8253210BD000053
:106BD00007B50121FFF7C0FF50B100F051F8054B98
:106BE000019301A821F0F8FF034803B05DF804FB0E
:106BF0000248FAE74C030000F0490300E9490300AA
:106C000007B50021FFF7A8FF50B100F039F8054B98
:106C1000019301A821F0E0FF034803B05DF804FBF5
:106C20000248FAE768030000F0490300E94903005D
:106C300038B5054618F080FB044698B90A4809F0B3
:106C400081FB044660B903F0BBF8044630B928461E
:106C500000F0D8FB044628B102F0EAFC09F094FBEE
:106C600018F044FB204638BD0000002008B502F0B3
:106C7000DFFC09F089FBBDE8084018F037BB0000D5
:106C80002DE9F0434FF4006087B0FCF7B3F90446F8
:106C900038B9A44BA4485B68122107B0BDE8F043A3
:106CA0001847FCF741FBA1490546204613F02FFD8C
:106CB000204613F034FD2B689D4AC0F50061204446
:106CC00013F03AFC204613F02AFD9A4A95F84C300E
:106CD000C0F50061204413F02FFC204613F01FFD87
:106CE0006A7A0146C1F500612018002A00F0C580CB
:106CF000914B924E012A08BF3346914A13F01CFC77
:106D0000204613F00CFDAB7A013BDBB2032B96BFA0
:106D10008C4A894B52F823308B4A0146C1F50061F9
:106D2000201813F009FC204613F0F9FC2B6B874A5E
:106D3000C0F50061204413F0FFFB204613F0EFFC88
:106D4000AB6B834AC0F50061204413F0F5FB20468D
:106D500013F0E5FC7F4A6B6BC0F50061204413F033
:106D6000EBFB204613F0DBFC2A7B0146C1F50061FA
:106D70002018002A00F083806F4B774E012A08BF4D
:106D80003346764A13F0D8FB204613F0C8FC95F83A
:106D90004010734A734B002908BF1346C0F50061C9
:106DA000714A204413F0C8FB204613F0B8FC95F854
:106DB0004E200146012A2044C1F5006161D05E4B9E
:106DC0006A4E032A08BF3346694A13F0B5FB2046D2
:106DD00013F0A5FC95F85030664AC0F500612044D8
:106DE00013F0AAFB204613F09AFC95F84D30624A46
:106DF000C0F50061204413F09FFB204613F08FFC88
:106E000095F8582095F85330049295F8572003923E
:106E100095F85620029295F85520019295F8542045
:106E20000092C0F50061554A204413F085FB2046CE
:106E300013F075FC95F85A2095F859300092C0F57A
:106E400000614F4A204413F077FB204613F067FCA3
:106E5000EB894C4AC0F50061204413F06DFB2B7A9E
:106E6000012B57D0204613F05AFC2B8A464AC0F516
:106E70000061204413F060FB32E0444B3DE7444B9B
:106E80007FE7444BA0E7282305F1E4027343D35A7C
:106E900000933A46334613F04FFBD5F82032013BBE
:106EA000B34208DD204613F03AFC4246C0F50061CB
:106EB000204413F041FB204613F031FC4A46C0F554
:106EC0000061204413F038FB0136204613F027FC04
:106ED000D5F820320146B3422044C1F50061D2DC2E
:106EE000204613F01CFC2C4AC0F50061204413F02E
:106EF00023FB204613F013FC0A4B01465B68204637
:106F000098472046FCF7B4F8642007B0BDE8F0438A
:106F1000FCF7CCB9214FDFF88880DFF88890002695
:106F2000D3E700BF6C00002090700300A370030043
:106F3000C0700300D3700300975903005970030019
:106F4000E9700300B8720300FC70030017710300BE
:106F500034710300527103006B700300677103000A
:106F60007F700300777003007E7103008C70030054
:106F700092710300A7710300B5710300D071030083
:106F8000027203001C720300567203004F7003006C
:106F90006370030088700300665103003A720300B7
:106FA00090550300B25D03007FB50C466946164656
:106FB00000F0D4FA054690BB029818F02BFD01288A
:106FC00009D002281AD0174B02995B6816489847D7
:106FD0006FF011050FE0154BA3664FF6FF73606667
:106FE000A4F86C3084F86E302EB194F85D3043F024
:106FF0000A0384F85D30284604B070BD0C4B0122B2
:10700000C4E919234FF6FF73A4F86C3084F86E308E
:10701000002EF0D094F85D3023F00E03E9E76FF016
:107020000805E8E76C000020F05703000201FFFFAD
:107030000001FFFF70B5164692F8442004460D4645
:1070400001F062FB002840F0B58096F84520294603
:10705000204601F06AFB002840F0AC8096F84820FA
:107060002946204601F094FB002840F0A38096F8C2
:107070004A202946204601F09CFB002840F09A80D7
:1070800096F860202946204601F071FB002840F068
:10709000918032782946204601F070FA002840F0AD
:1070A000898072782946204601F078FA002840F05D
:1070B000818032792946204601F092FA002879D160
:1070C00096F846202946204601F040FB002871D161
:1070D000B26A2946204601F0A4FA00286AD1326B30
:1070E0002946204601F0ADFA002863D1F26A29460C
:1070F000204601F0B6FA00285CD1B2782946204635
:1071000001F05DFA002855D196F83820294620462E
:1071100001F0C7FA00284DD1726B2946204601F0D4
:10712000B0FA002846D196F83C202946204601F0C6
:10713000DAFA00283ED106F14B022946204601F03A
:107140008CFBB8BB96F85D202946204601F042FB37
:1071500080BB96F83B202946204601F0B3FA48BB95
:1071600096F8B0202946204601F056FB10BB96F851
:107170005C202946204601F03EFBD8B9F28829461A
:10718000204601F03EFAA8B9B26906F10803294683
:10719000204601F00BFC68B906F16402294620463E
:1071A00001F088FB30B9294620462822BDE870400E
:1071B00001F043BB70BD2DE9F041E2B004460E463C
:1071C00017460021F02226A812F0F2FA60220021D0
:1071D0000EA812F0EDFAA5681C2235F8048B0021E8
:1071E000684612F0E5FA0023A8F104080394ADF80C
:1071F0001C3107AC48930E2240F20D1326A96846B5
:10720000CDE90155CDF810804694ADF8243102F057
:10721000BBF8A0B90423ADF87C3040F209132090EC
:10722000ADF88430ADF88C0024900D2305220EA912
:1072300020461E972296ADF8943002F0A5F862B071
:10724000BDE8F08170B5B0B1A9B1002200F15805D8
:107250000C2606FB02F42B5D3BB9086020440A7142
:10726000012280F85820184670BD01320A2AF0D158
:107270006FF00500F8E76FF00A00F5E768B10279F2
:10728000092A0DD850210C2313FB02130168CA18D8
:107290000020C8505060906070476FF00A0070473F
:1072A0006FF01600704710B50C4600F1D8010120B0
:1072B000FBF7BAFE58B1042303764FF40873C36298
:1072C00000F1D803C36000F118030361846310BDAB
:1072D000FBF7CEBE014B186000207047509A00208B
:1072E000024A002343641360704700BF509A002095
:1072F000034610B45A6C08463AB1D4682CB1986C65
:10730000002223465DF8044B18475DF8044B01F05A
:10731000EBBF436C23B19B6813B1806C002118470D
:107320007047034610B45A6C08463AB114682CB141
:10733000986C012223465DF8044B18475DF8044B16
:1073400001F0D2BF084B10B41C68636C3BB11B68E2
:107350002BB101460022A06C5DF8044B18475DF884
:10736000044B01F0C1BF00BF509A0020C36B0BB1AA
:10737000006C184770470000F8B50E4B1B68DB6CBB
:1073800005460C4683B1C36C8E6818461C2200214A
:1073900036F8047B12F00CFAEB6C043FC0E901668E
:1073A0000761DC600020F8BD084601F09DFF6FF02A
:1073B0000A00F8E7509A002070B50139092988B011
:1073C000164617D80C2404FB0104636DABB16A4662
:1073D00001A93046FFF7EFFE054688B9636D0099B5
:1073E000206D01AA984716B1304601F07DFF28466E
:1073F00008B070BD6FF01605F5E76FF00605F2E70F
:107400000025F0E710B5044606F0ACFF28B901F0FE
:10741000CBFE10B9014B1B68236010BD509A0020B1
:1074200008B501F0C7FEBDE8084006F0A6BF10B1E0
:10743000836B5B681847704710B5044640B1FFF78F
:10744000F6FF40B9A36B20469B68BDE81040184783
:107450006FF0080010BD0020FCE710B5044640B1F5
:10746000FFF7E5FF20B1A36B2046DB6898470020BB
:1074700010BD6FF00800FBE710B551B10379092B7F
:107480000AD800680C2404FB0303C3E9142100207C
:1074900010BD6FF00A00FBE76FF01600F8E708B5C3
:1074A00028B101F065FB00EAE07000B208BD6FF0A2
:1074B0000800FBE71FB548B1836BADF80A101B6AE3
:1074C00001226946984705B05DF804FB6FF008009B
:1074D000F9E718B102B1526801F0F4BA6FF0080090
:1074E000704710B4019C30B104B1646801945DF838
:1074F000044B01F0FFBA6FF008005DF8044B7047D1
:1075000070B588B004460D9DC8B10DB1287EC8B9CC
:107510000E9800790130002607900F98E064CDE9BD
:10752000056605B16D6805A8CDE901500C9800907D
:10753000204601F0FDFA0023E36408B070BD6FF04F
:107540000800FAE76FF00400F7E710B5044620B131
:10755000C06801F0C9FE0023E36010BD1FB50C46F2
:1075600068B1694601F01CFB38B9DDE90023C4E9C4
:107570000023029BA360039BE36004B010BD6FF087
:107580000800FAE7D0E90032082018477FB5134613
:1075900070B1019108490022CDE90413083001AB14
:1075A0000521CDE9022209F0DBFD07B05DF804FBFF
:1075B0006FF00A00F9E700BFCF76000030B50C4647
:1075C0008FB005466A460321204601F041FE07AA16
:1075D0000021204601F03CFEAA880121204602F04D
:1075E00010F8AB7983B12A680221204602F014F822
:1075F000EB794BB1102B01D0202B10D105F10802F3
:107600000321204602F012F807A9204601F03EFEB1
:107610006946204601F03AFE00200FB030BD6FF001
:107620000A00FAE7F0B50C4697B0074601AA2321F5
:10763000204601F00DFE3D1D00263B68B34205F1DA
:10764000070506D801A9204601F020FE002017B04A
:10765000F0BD314608AA204601F0FAFD15F8072CC6
:107660000121204601F0C2FF15F8062C0221204618
:1076700001F0BCFF15F8052C0321204601F0B6FFF0
:107680000FAA0421204601F0E3FD15F8042C012186
:10769000204601F0ABFF15F8032C0221204601F033
:1076A000A5FF0FA9204601F0F1FD15F8022C0521D8
:1076B000204601F09BFF15F8012C0621204601F021
:1076C00095FF08A9204601F0E1FD0136B5E710B4A9
:1076D0000446D4E90132084621785DF8044B01F0F4
:1076E00081BD10B50B01002400EB01111470C250D4
:1076F00001238B818B808C6010BD30B595B00C461A
:10770000054650220021684612F052F80122072354
